:020000040800F2
:1000000000000820A51A0008B1070008B30700087F
:10001000B5070008B7070008B9070008000000008E
:10002000000000000000000000000000E1190008CE
:10003000BB07000800000000111A0008751A00082C
:10004000F51A0008F51A0008F51A0008F51A000854
:10005000F51A0008F51A0008F51A0008F51A000844
:10006000F51A0008F51A0008F51A0008F51A000834
:1000700099070008F51A000875070008F51A000826
:10008000F51A0008F51A0008F51A0008F51A000814
:10009000F51A0008F51A0008F51A0008F51A000804
:1000A000F51A0008BD070008F51A0008F51A00083F
:1000B00051090008F51A0008F51A0008F51A000899
:1000C000F51A0008F51A0008F51A0008F51A0008D4
:1000D000F51A0008F51A0008F51A0008810600084C
:1000E000F51A0008F51A0008F51A0008F51A0008B4
:1000F000F51A0008F51A0008F51A0008F51A0008A4
:10010000F51A0008F51A0008F51A0008F51A000893
:10011000F51A0008F51A0008F51A0008E90B00089E
:10012000F51A0008F51A0008E1080008250900087A
:10013000F51A0008F51A0008F51A0008F51A000863
:10014000F51A0008F51A0008F51A0008F51A000853
:10015000F51A0008F51A0008F51A0008F51A000843
:10016000F51A0008F51A0008F51A0008F51A000833
:10017000F51A0008F51A0008F51A0008000000003A
:10018000F51A0008F51A0008F51A0008F51A000813
:10019000F51A0008F51A0008F51A0008F51A000803
:1001A000F51A0008F51A0008F51A0008F51A0008F3
:1001B000F51A0008F51A0008F51A0008F51A0008E3
:1001C000F51A0008F51A000800000000F51A0008EA
:1001D000F51A0008F51A0008F51A0008F51A0008C3
:1001E000F51A0008F51A0008F51A0008F51A0008B3
:0801F000F51A0008F51A0008D9
:100200000348044B834202D0034B03B118477047A5
:100210000C0000200C000020000000000548064BE8
:100220001B1AD90F01EBA301491002D0034B03B1F4
:10023000184770470C0000200C0000200000000050
:1002400010B5064C237843B9FFF7DAFF044B13B11E
:100250000448AFF300800123237010BD0C00002080
:1002600000000000401B000808B5044B1BB1044906
:100270000448AFF30080BDE80840CFE7000000006D
:1002800010000020401B0008BFF35F8F094B0022C5
:10029000C3F89420C3F89820C3F89C20064AC3F8FA
:1002A000A0200522C3F89420BFF34F8FBFF36F8FB8
:1002B000704700BF00ED00E03F87041000B5C36841
:1002C00091FAA1FCBCFA8CFC4FEA4C0C4FF0030EE7
:1002D0000EFA0CFC23EA0C0391FAA1F1B1FA81F1B8
:1002E00049008A401343C36000BD00B5036891FA1A
:1002F000A1FCBCFA8CFC4FEA4C0C4FF0030E0EFA3A
:100300000CFC23EA0C0391FAA1F1B1FA81F1490046
:100310008A401343036000BD2DE9F04F8FB00CA855
:1003200000240C94446006AD06946C60AC60EC60F4
:100330002C616C61754B1A6B42F004021A631A6BE4
:1003400002F004020592059A1A6B42F080021A63C9
:100350001A6B02F080020492049A1A6B42F00102B6
:100360001A631A6B02F001020392039A1A6B42F0AD
:1003700002021A631A6B02F002020292029A1A6BCC
:1003800042F008021A631A6B02F008020192019A05
:100390001A6B42F040021A631B6B03F04003009398
:1003A000009B5B4F4FF48033BB614FF08043BB61D8
:1003B000DFF864814FF48003C8F818304FF400036D
:1003C000BB6154494A6922F0F002F02393FAA3F387
:1003D000B3FA83F34FF0020909FA03F313434B61B5
:1003E0004FF4005ACDF830A001268DF834608DF816
:1003F000366001F0A7F8DFF824B12246514658468E
:10040000FFF75CFF224651465846FFF76EFF0696FF
:100410000796089409940A942946384601F047F84B
:100420004FF4804306930796089409940A9429464A
:10043000384601F03CF84023069307960894099447
:100440000A942946404601F032F880230693079427
:100450000A942946404601F02AF84FF48073069327
:10046000CDF81C904FF0030BCDF820B009940A94FE
:100470004FF00A0ACDF82CA0A8F5C05829464046EE
:1004800001F015F84FF40073069307940A94294677
:10049000404601F00CF84FF480630693CDF81C90B1
:1004A000CDF820B009940A94CDF82CA029464046F6
:1004B00000F0FDFF4FF400630693CDF81C90CDF8DB
:1004C00020B009940A94CDF82CA02946404600F0AB
:1004D000EEFF4FF480530693CDF81C90CDF820B07A
:1004E00009940A94CDF82CA02946404600F0DFFF7D
:1004F000802306930796089409940A94294638465F
:1005000000F0D5FF0FB0BDE8F08F00BF003802400B
:100510000004024000380140001802400008024078
:1005200008B50268034B9A4200D008BD01F026F9D5
:10053000FBE700BF0000014072B6FEE708B5344A91
:10054000136823F00F0343F007031360304B1B685D
:1005500003F00F03072BF9D12E4B1A6842F44042E7
:100560001A601A6842F480321A6003F5E4331A689C
:1005700042F480221A601A6842F480321A60264BD4
:100580001B6813F4003FFAD0234B5A6823491140EB
:10059000234A0A435A601A6842F080721A601E4B5E
:1005A0001B6813F0007FFAD01A4B5B6813F4804F7E
:1005B000FAD0194B9A6822F0F0029A609A6822F4F5
:1005C000E05242F4A0529A609A6822F4604242F4E7
:1005D00000429A609A6822F0030242F002029A6096
:1005E0000D4B9B6803F00C03082BF9D10D4800F06C
:1005F000A3FF0F2000F00AF938B9074AD2F88C306F
:1006000023F08073C2F88C3008BDFFF795FF00BF60
:10061000003C024000700040003802400080BCFFF7
:100620000436400000E6DF0C08B5FFF72DFE01F0B0
:1006300099F8FFF783FFFFF76FFE0E4B1A680E4B1A
:10064000A3FB0232920B013A0C4B1A641822DA63B4
:10065000002283F8352083F83420052119605A6080
:1006600083F8542083F8482000F0C6F900F074FBAA
:10067000FEE700BF080000205917B7D1480100204D
:1006800008B5144BDB6913F4006F1DD0114B4FF408
:1006900000621A6203F50633DB6AC3F1FF039BB203
:1006A0000D4A13800D4A11888B420ED95A1A92B204
:1006B0000B4802800B4A1180084A138001210A4B23
:1006C00019700A4800F0DEFF08BD5A1A92B2FF32D4
:1006D00092B2EDE700480040EE000020F00000205C
:1006E000F4000020F2000020F60000200004024088
:1006F0001A4B1A780132D2B21A70194BA3FB0201BD
:10070000090901EB4101A2EBC102D2B215490978F6
:10071000A3FB01031B0903EB4303A1EBC301C9B214
:100720008A4217D010498B6D23F001038B650E4B65
:100730009B6D13F0010FFAD10C4951F832000A4BAE
:10074000586601EBC2018A88DA659A6D42F00102AF
:100750009A657047064B00221A707047ED00002022
:10076000ABAAAAAAEC000020006002402C000020E6
:100770002800002008B5074B1B6813F0006F00D15C
:1007800008BD044A936843F000639360FFF7B0FF2D
:10079000F6E700BF00600240044B1B6813F4006FD3
:1007A00003D0024B4FF400629A6070470060024031
:1007B000FEE7FEE7FEE7FEE7FEE7704708B5024802
:1007C00000F074FC08BD00BFF800002000B583B045
:1007D0000D4B1A6C42F080521A641A6C02F080526F
:1007E0000092009A5A6C42F480425A645B6C03F4A3
:1007F00080430193019B00220F216FF0010000F064
:1008000093FF03B000BD00BF0038024030B589B08F
:1008100004461F4B5A6C42F001025A645B6C03F0B1
:1008200001030193019B02A903A800F00DFF00F052
:10083000FBFE4300174AA2FB03239B0C013B164817
:10084000164A026040F2E732C2604360002303614F
:100850008360836100F084FD054610B1284609B02D
:1008600030BD0D4800F0D6FB05460028F6D1192012
:1008700000F06AFF0F2C02D901231D46EEE700228B
:100880002146192000F050FF054B1C60E6E700BF31
:100890000038024083DE1B43F800002000000140C6
:1008A00004000020024B002283F84820704700BF5C
:1008B00048010020094B93F8363013F004000CD0A7
:1008C00013F0020009D0054A23F0040182F8361023
:1008D00023F0060382F836300120704748010020DB
:1008E00008B50D4B1B6813F4001F13D00A4A936818
:1008F00043F400139360094B08229A61084B93F864
:10090000362042F0040283F836205B6C13B1044BAE
:100910005B6C984708BD00BF0064024000000240C5
:1009200048010020084B1B6813F0006F0BD0064AEB
:10093000936843F000639360044A92F8363043F0C2
:10094000020382F8363070470064024048010020FC
:100950004FF080431B6913F0010F43D04FF08043E9
:100960006FF001021A6103F500334FF400229A611F
:100970001D4A92F8363023F0040182F8361023F035
:10098000060382F83630194A936D23F0010393650C
:10099000164B9B6D13F0010FFAD1144B144A5A6693
:1009A0001822DA659A6D42F001029A651A6C22F0FB
:1009B00001021A640D4B1B6C13F0010FFAD10B4BA3
:1009C0000C4ADA6418225A641A6C42F001021A6462
:1009D000054B012283F855205A6801325A609A6B00
:1009E00001329A63704700BF480100200064024052
:1009F000D8010020C0010020594B1A6B42F00102BF
:100A00001A631A6B42F008021A635648026822F40D
:100A1000735242F42152026053490A6822F4404260
:100A200042F400420A60026A22F07F6242F0AA6247
:100A300002620A6A22F0704242F0A0420A625A6CD4
:100A400042F480525A64494A4FF44D7111604FF498
:100A5000B85151601A6B42F480021A63444A936D94
:100A600023F001039365424B9B6D13F0010FFAD104
:100A70003F4A136C23F0010313643D4B1B6C13F0CE
:100A8000010FFAD13A4A91683A4B0B439360002325
:100A90009365906D3849014391651364106C374933
:100AA00001431164364911669164364A4FF0806102
:100AB00051604FF000615160502182F83A1382F882
:100AC0003B1306E000223049CA543049CA5401336E
:100AD000DBB2172BF6D92E4A23231372537293726B
:100AE000D372204B08219961DFF874C0DCF84030E4
:100AF00043F00103CCF840304FF0804300211960EF
:100B00005960106C9862D06BD862186920F00100AF
:100B10001861D86840F00100D8601A484FF080533F
:100B2000036080F81C131B4B5364DCF8403043F027
:100B30002003CCF84030184B1960596042F62F2240
:100B40009A620922DA626FF001021A61DA6842F0F1
:100B50000102DA604FF40003436080F837137047F6
:100B60000038024000000240000C0240003001400A
:100B70000064024000007D0F5004010610040106CD
:100B80000C30014000E100E0D8010020C00100204D
:100B900048010020A5080008001400400F4B1880F1
:100BA0000F4B4FF400025A600E4A136843F00103E2
:100BB000136000E000BF094B1B889BB2002BF9D1EA
:100BC000074B4FF40002C3F88420BFF34F8FBFF3ED
:100BD0006F8F024B00221A80704700BF4401002033
:100BE00000E100E000140040074B1B6913F0010F07
:100BF00009D0054B6FF001021A61044A13889BB2B9
:100C0000013B9BB213807047001400404401002058
:100C100008B5204A92F8363023F0020C82F836C02C
:100C200023F0060382F836301B4B187059701B4BAB
:100C30004FF400229A611A4A936D23F001039365E1
:100C4000174B9B6D13F0010FFAD11349144B5966E2
:100C50000222DA659A6D42F001029A651A6C22F05E
:100C600001021A640E4B1B6C13F0010FFAD10C4BEE
:100C7000D96402225A641A6C42F001021A6400E03C
:100C800000BFFFF717FE0028FAD0044B08229A6134
:100C900008BD00BF48010020A00100200000024064
:100CA0000064024008B5010101F0F0017F20FFF768
:100CB000AFFF0520FFF772FF08BD000008B5224A0C
:100CC00092F8363023F0020182F8361023F0060342
:100CD00082F836301D4B60F07F00187000225A7089
:100CE0001B4B4FF400229A611A4A936D23F00103C3
:100CF0009365184B9B6D13F0010FFAD11349154BF7
:100D000059660222DA659A6D42F001029A651A6C00
:100D100022F001021A640F4B1B6C13F0010FFAD181
:100D20000C4BD96402225A641A6C42F001021A6414
:100D300000E000BFFFF7BEFD0028FAD0044B0822F8
:100D40009A61024B587808BD48010020A00100209C
:100D50000000024000640240F8B5A74D6B691A0418
:100D600002F40002DB4303F080031343AB61A34CA6
:100D7000236843F040032360636843F00303636028
:100D80000020FFF78FFF0520FFF708FF0620FFF781
:100D900095FF80210620FFF73BFF4FF4FA70FFF725
:100DA000FDFE01210620FFF733FF4FF49670FFF799
:100DB000F5FE6B691A0402F40002DB4303F08003C2
:100DC0001343AB6101210620FFF722FF6420FFF7E8
:100DD000E5FE10210320FFF71BFF0A20FFF7DEFED0
:100DE0006B691A0402F40002DB4303F0800313432F
:100DF000AB610220FFF756FF814F97F8341049008E
:100E000041F00101C9B21420FFF702FF2820FFF7CB
:100E1000C5FE97F83510490041F00101C9B2012023
:100E2000FFF7F6FE2820FFF7B9FE97F834300126C9
:100E300006FA03F307EE903AF8EEE77A77EEA77A30
:100E40009FED707AC7EE876AC7ED136A97F8353061
:100E500006FA03F307EE903AF8EEE77ADFED6A6AF6
:100E600067EEA67AC7EE876AC7ED146A3146092095
:100E7000FFF7CEFE0520FFF791FE0020FFF712FFDF
:100E80000520FFF78BFE0320FFF718FF40F002015B
:100E9000C9B20320FFF7BCFE6420FFF77FFE6B6939
:100EA0001A0402F40002DB4303F080031343AB6136
:100EB0000320FFF703FF40F02001C9B20320FFF732
:100EC000A7FE0A20FFF76AFE0320FFF7EBFE0520CE
:100ED000FFF764FE07213046FFF79AFE0A20FFF76E
:100EE0005DFE0020FFF7DEFE0520FFF757FE4021E4
:100EF0000520FFF78DFE6420FFF750FE6B691A0492
:100F000002F40002DB4303F080031343AB610320D0
:100F1000FFF7C8FE0520FFF741FE03210020FFF781
:100F200077FE0A20FFF73AFE0C210320FFF770FE40
:100F300032210420FFF76CFE31460620FFF768FEE1
:100F400081210520FFF764FE3220FFF727FE0C21E8
:100F50000320FFF75DFE31210420FFF759FE082131
:100F60000620FFF755FE81210520FFF751FE3220B4
:100F7000FFF714FE6B691A0402F40002DB4303F06E
:100F800080031343AB618C210320FFF741FE102146
:100F90000420FFF73DFE89210520FFF739FE64207C
:100FA000FFF7FCFD0020FFF77DFE20210320FFF767
:100FB0002FFE6420FFF7F2FD0020FFF773FE0520EF
:100FC000FFF7ECFD0020FFF779FE6420FFF7E6FD58
:100FD000236823F040032360236843F01803236051
:100FE000236843F040032360636843F003036360B6
:100FF000064BAD221A70F8BD0004024000300140DB
:101000004801002000FEFF4600007A43D80100207E
:101010007047000090F83D30012B3AD1022380F850
:101020003D300268D36843F00103D36003681B4A74
:10103000B3F1804F18BF93421DD0A2F57C4293427A
:1010400019D002F58062934215D002F58062934276
:1010500011D002F5784293420DD002F570529342BE
:1010600009D0A2F59432934205D01A6842F00102E9
:101070001A60002070479968094A0A40062A18BF7A
:10108000B2F5803F07D01A6842F001021A600020D2
:101090007047012070470020704700BF00000140EA
:1010A00007000100704770477047704770B50446ED
:1010B0000368DE681D6915F0020F10D016F0020FEC
:1010C0000DD06FF002021A610123037703689B6958
:1010D00013F0030F67D0FFF7E6FF0023237715F027
:1010E000040F12D016F0040F0FD023686FF0040223
:1010F0001A610223237723689B6913F4407F58D039
:101100002046FFF7D0FF0023237715F0080F12D0F9
:1011100016F0080F0FD023686FF008021A6104233D
:1011200023772368DB6913F0030F49D02046FFF7CC
:10113000BAFF0023237715F0100F12D016F0100F0E
:101140000FD023686FF010021A61082323772368F9
:10115000DB6913F4407F3AD02046FFF7A4FF002359
:10116000237715F0010F02D016F0010F36D115F0DC
:10117000800F02D115F4005F02D016F0800F35D138
:1011800015F4807F02D016F0800F37D115F0400F94
:1011900002D016F0400F39D115F0200F02D016F012
:1011A000200F3BD170BDFFF77DFF2046FFF77CFF8E
:1011B00093E72046FFF776FF2046FFF775FFA2E78B
:1011C0002046FFF76FFF2046FFF76EFFB1E720468E
:1011D000FFF768FF2046FFF767FFC0E723686FF05F
:1011E00001021A612046FFF79BF9C0E723686FF4FC
:1011F00002521A61204600F0E4F8C1E723686FF458
:1012000080721A61204600F0DDF8BFE723686FF0B6
:1012100040021A612046FFF748FFBDE723686FF0E0
:1012200020021A61204600F0CBF8BBE710B58C46CF
:101230000368444A904214BF00220122B0F1804F5B
:1012400014BF114642F00101F1B9DFF800E1704529
:1012500014BF4FF0000E4FF0010E3B4CA04213D0D4
:10126000BEF1000F10D10EF1804E0EF5823E70459A
:1012700014BF4FF0000E4FF0010E04F50064A042C1
:1012800002D0BEF1000F04D023F07003DCF804405C
:101290002343002934D12D49884214BF0021012164
:1012A000DFF8A4E070452BD051BB01F1804101F57E
:1012B0008231884214BF002101210EF5006E704575
:1012C0001ED0E9B92249884214BF002101210EF540
:1012D0009A3E704514D099B91E49884214BF002126
:1012E00001210EF5006E70450AD049B91A498842AD
:1012F00014BF00210121AEF5963E704500D021B10A
:1013000023F44073DCF80C100B4323F08003DCF86B
:1013100014100B43DCF80810C162DCF80010816285
:101320000E49884208BF42F0010212B1DCF81020D9
:101330000263026842F0040202600122426103601B
:1013400010BD00BF00000140000400400008004044
:10135000004401400018004000200040000401400B
:1013600060B310B5044690F83D3013B3022384F8FF
:101370003D30214651F8040BFFF758FF012384F854
:10138000483084F83E3084F83F3084F8403084F8A8
:10139000413084F8423084F8433084F8443084F893
:1013A000453084F8463084F8473084F83D300020DA
:1013B00010BD80F83C30FFF72BFED7E701207047C7
:1013C00070477047704700B5836891FAA1FCBCFA7A
:1013D0008CFC4FEA4C0C4FF0030E0EFA0CFC23EA87
:1013E0000C0391FAA1F1B1FA81F149008A4013434B
:1013F000836000BD00B5C36891FAA1FCBCFA8CFC07
:101400004FEA4C0C4FF0030E0EFA0CFC23EA0C03CF
:1014100091FAA1F1B1FA81F149008A401343C36006
:1014200000BD00B5036A91FAA1FCBCFA8CFC4FEA3E
:101430008C0C4FF00F0E0EFA0CFC23EA0C0391FA01
:10144000A1F1B1FA81F189008A401343036200BD22
:1014500000B5436A090A91FAA1FCBCFA8CFC4FEA78
:101460008C0C4FF00F0E0EFA0CFC23EA0C0391FAD1
:10147000A1F1B1FA81F189008A401343436200BDB2
:1014800000B5036891FAA1FCBCFA8CFC4FEA4C0C45
:101490004FF0030E0EFA0CFC23EA0C0391FAA1F1B3
:1014A000B1FA81F149008A401343036000BDF8B5E9
:1014B00007460E460D6895FAA5F5B5FA85F519E0CB
:1014C000B26821463846FFF77EFF3268F1687B68D4
:1014D00023EA020301FB02F213437B6016E0726908
:1014E00021463846FFF7B4FF726821463846FFF7B9
:1014F000C7FF0135346834FA05F21BD00122AA4037
:101500001440F6D07368013B012BD9D932692146CA
:101510003846FFF76FFF7368022BE5D194FAA4F306
:10152000B3FA83F3072BDAD8726921463846FFF7FE
:1015300078FFD9E70020F8BD014B1860704700BF65
:101540000800002010B403460079002853D01A6820
:10155000002A5DD05879012821D002282AD00028FD
:1015600032D12D49D1F804C02CEA02024A600A683F
:101570001C6822430A609A79002A47D0022A25D0A3
:10158000032A2ED0012A45D1234AD1681C6821EABA
:101590000401D1601B6891680B43936036E01E49DB
:1015A000086820EA02020A601A68486802434A6032
:1015B0000020E0E71849086802430A601A68486892
:1015C00002434A600020D6E70120D4E7124A91681E
:1015D0001C6821EA040191601B68D1680B43D36049
:1015E00014E00D4A91681C68214391601B68D16822
:1015F0000B43D3600AE0084A11681C6821EA040121
:1016000011601968536823EA0103536010BC7047E6
:101610001046FBE70120F9E7003C0140014B186848
:10162000704700BF0800002008B5FFF7F7FF044B24
:101630009B68C3F34233034AD35CD84008BD00BF64
:1016400000380240581B00080F2303600B4B9A68B8
:1016500002F0030242609A6802F0F00282609A6827
:1016600002F4E052C2609B68DB0803F4E0530361BC
:10167000034B1B6803F00F030B60704700380240F8
:10168000003C0240436901EA030221EA030141EA06
:101690000241816170470000002804DB0901C9B2E2
:1016A000044B1954704700F00F000901C9B2024BF6
:1016B0001954704700E400E014ED00E000B500F0BC
:1016C0000700A0F1030CBCF1040F07D8C0F1070E0E
:1016D0000430062806D84FF0000C03E04FF0040E4B
:1016E0004FF0000C4FF0FF3303FA0EF021EA000137
:1016F00001FA0CF103FA0CF322EA030241EA0200B8
:1017000000BD00000649CB6823F4E0631B041B0CFA
:10171000000200F4E0600343024A1A43CA607047C3
:1017200000ED00E00000FA0510B50446054BD8684E
:10173000C0F30220FFF7C2FF01462046FFF7ACFFCF
:1017400010BD00BF00ED00E0002807DB00F01F0225
:10175000400901239340024A42F82030704700BFFD
:1017600000E100E008B50320FFF7CCFF0F20FFF7F2
:101770004DF8FFF72BF8002008BD0000034A116860
:10178000034B1B780B441360704700BFF00100202F
:1017900000000020034AD2F8883043F47003C2F8F6
:1017A0008830704700ED00E043684B609A688A60BB
:1017B00051609960086103680133036070470369F1
:1017C000416882688A60416851605A68824206D0E6
:1017D000002202611A68013A1A601868704782682C
:1017E0005A60F5E7084B1B681B6823B9074B4FF09D
:1017F000FF321A607047044B1B68DB68DB685A686D
:10180000024B1A60704700BF14020020F80100204C
:10181000F8B53E4B1B68002B6AD13D4B1D68013566
:101820001D60D5B93B4B1B681B6853B14FF050038B
:1018300072B683F31188BFF36F8FBFF34F8F62B619
:10184000FEE7344A1168344B186810601960334A57
:10185000136801331360FFF7C5FF314B1B68AB42C0
:101860003BD900231F462F4B1B68DB6A03EB830326
:101870009B002D4AD358012B40D901231F463DE040
:1018800001231F46234B1B681B684BB3214B1B686E
:10189000DB68DC6863689D4227D3261D3046FFF76E
:1018A0008EFFA36A1BB104F11800FFF788FFE06AFE
:1018B0001E4B1B68984201D91C4B186000EB80003E
:1018C0003146194B03EB8000FFF76EFFE26A154BC0
:1018D0001B68DB6A9A42D3D2D4E700231F46D1E7C4
:1018E0000F4B4FF0FF321A60BDE70D4A1360BAE7A5
:1018F0000F4A13680133136000231F460D4B1B680A
:101900000BB101231F463846F8BD00BFF40100208B
:101910000C0200201402002010020020FC01002014
:10192000F80100207806002018020020080200209C
:101930000402002000020020214B1B681BB1214B38
:1019400001221A6070471F4B00221A601E4B1B6851
:1019500003EB830292001D498A586AB90BB1013B1F
:10196000F6E74FF0500372B683F31188BFF36F8F21
:10197000BFF34F8F62B6FEE7084603EB830201EB2D
:10198000820251684968516003EB83029200083279
:10199000024491420BD003EB83010C4A02EB81021B
:1019A0005268D1680A4A1160074A13607047486854
:1019B00003EB8301054A02EB81025060EBE700BFB5
:1019C000F40100200002002008020020180200207C
:1019D0007806002000000000000000000000000069
:1019E000074B19680868B0E8F04F80F30988BFF327
:1019F0006F8F4FF0000080F311887047AFF30080C5
:101A00007806002000000000000000000000000038
:101A1000EFF30980BFF36F8F154B1A681EF0100F9C
:101A200008BF20ED108A20E9F04F106009B44FF094
:101A3000500072B680F31188BFF34F8FBFF36F8FE2
:101A400062B6FFF779FF4FF0000080F3118809BC00
:101A500019680868B0E8F04F1EF0100F08BFB0EC2E
:101A6000108A80F30988BFF36F8F7047AFF300804F
:101A70007806002008B54FF0500372B683F3118842
:101A8000BFF36F8FBFF34F8F62B6FFF7C1FE28B170
:101A90004FF0E0234FF08052C3F8042D002383F36E
:101AA000118808BDDFF834D0FFF774FE0C480D49EB
:101AB0000D4A002302E0D458C4500433C4188C42A9
:101AC000F9D30A4A0A4C002301E013600432A2420F
:101AD000FBD300F011F8FEF7A7FD704700000820C7
:101AE000000000200C000020681B00080C000020F3
:101AF0007C060020FEE7000070B50D4B0D4C002663
:101B00001D1BB6EBA50F09D100F01AF80A4C0B4BC0
:101B100000261D1BB6EBA50F05D170BD54F8043B84
:101B200098470136EDE754F8043B98470136F1E752
:101B3000601B0008601B0008601B0008641B000895
:101B4000F8B500BFF8BC08BC9E467047F8B500BFAA
:081B5000F8BC08BC9E4670477A
:081B580000000000010203047B
:041B6000690200080E
:041B64004102000832
:0C1B680001000000100000000024F40048
:0400000508001AA530
:00000001FF
