:020000040800F2
:1000000000000820651A00086D0700086F07000847
:10001000710700087307000875070008000000005A
:10002000000000000000000000000000A11900080E
:100030007707000800000000D1190008351A0008F1
:10004000B51A0008B51A0008B51A0008B51A000854
:10005000B51A0008B51A0008B51A0008B51A000844
:10006000B51A0008B51A0008B51A0008B51A000834
:1000700055070008B51A000831070008B51A00082E
:10008000B51A0008B51A0008B51A0008B51A000814
:10009000B51A0008B51A0008B51A0008B51A000804
:1000A000B51A000879070008B51A0008B51A000843
:1000B00009090008B51A0008B51A0008B51A0008A1
:1000C000B51A0008B51A0008B51A0008B51A0008D4
:1000D000B51A0008B51A0008B51A00083D06000850
:1000E000B51A0008B51A0008B51A0008B51A0008B4
:1000F000B51A0008B51A0008B51A0008B51A0008A4
:10010000B51A0008B51A0008B51A0008B51A000893
:10011000B51A0008B51A0008B51A00089D0B0008AA
:10012000B51A0008B51A000899080008DD0800088B
:10013000B51A0008B51A0008B51A0008B51A000863
:10014000B51A0008B51A0008B51A0008B51A000853
:10015000B51A0008B51A0008B51A0008B51A000843
:10016000B51A0008B51A0008B51A0008B51A000833
:10017000B51A0008B51A0008B51A000800000000FA
:10018000B51A0008B51A0008B51A0008B51A000813
:10019000B51A0008B51A0008B51A0008B51A000803
:1001A000B51A0008B51A0008B51A0008B51A0008F3
:1001B000B51A0008B51A0008B51A0008B51A0008E3
:1001C000B51A0008B51A000800000000B51A0008AA
:1001D000B51A0008B51A0008B51A0008B51A0008C3
:1001E000B51A0008B51A0008B51A0008B51A0008B3
:0801F000B51A0008B51A000859
:1002000010B5054C237833B9044B13B10448AFF350
:1002100000800123237010BD0C00002000000000AE
:10022000001B000808B5034B1BB103490348AFF39B
:10023000008008BD0000000010000020001B000826
:10024000BFF35F8F094B0022C3F89420C3F89820B6
:10025000C3F89C20064AC3F8A0200522C3F89420C6
:10026000BFF34F8FBFF36F8F704700BF00ED00E00B
:100270003F87041000B5C36891FAA1FCBCFA8CFC5E
:100280004FEA4C0C4FF0030E0EFA0CFC23EA0C0361
:1002900091FAA1F1B1FA81F149008A401343C36098
:1002A0005DF804FB00B5036891FAA1FCBCFA8CFC74
:1002B0004FEA4C0C4FF0030E0EFA0CFC23EA0C0331
:1002C00091FAA1F1B1FA81F149008A401343036028
:1002D0005DF804FB2DE9F04F8FB000240C940D94D1
:1002E00006940794089409940A940B94754B1A6B1E
:1002F00042F004021A631A6B02F004020592059A96
:100300001A6B42F080021A631A6B02F080020492A8
:10031000049A1A6B42F001021A631A6B02F001028E
:100320000392039A1A6B42F002021A631A6B02F0EC
:1003300002020292029A1A6B42F008021A631A6BC6
:1003400002F008020192019A1A6B42F040021A630D
:100350001B6B03F040030093009B5B4E4FF4803314
:10036000B3614FF08043B361584F4FF48003BB61DA
:100370004FF40003B36156494A6922F0F002F023BA
:1003800093FAA3F3B3FA83F34FF0020808FA03F3E6
:1003900013434B614FF40059CDF8309001258DF88F
:1003A00034508DF836500CA801F09AF8DFF824A1EB
:1003B000224649465046FFF75DFF224649465046D1
:1003C000FFF770FF06950795089409940A9406A90B
:1003D000304601F039F84FF48043069307950894AE
:1003E00009940A9406A9304601F02EF8402306939A
:1003F0000795089409940A9406A9384601F024F850
:100400004FF0800ACDF818A007940A9406A9384640
:1004100001F01AF84FF480730693CDF81C804FF06A
:10042000030BCDF820B009940A944FF00A09CDF8D7
:100430002C90A7F5C05706A9384601F005F84FF4EF
:100440000073069307940A9406A9384600F0FCFF4F
:100450004FF480630693CDF81C80CDF820B009944A
:100460000A94CDF82C9006A9384600F0EDFF4FF421
:1004700000630693CDF81C80CDF820B009940A944F
:10048000CDF82C9006A9384600F0DEFF4FF48053DB
:100490000693CDF81C80CDF820B009940A94CDF8CD
:1004A0002C9006A9384600F0CFFFCDF818A007958C
:1004B000089409940A9406A9304600F0C5FF0FB0CD
:1004C000BDE8F08F003802400004024000180240EE
:1004D000003801400008024008B50268034B9A4208
:1004E00000D008BD01F014F9FBE700BF0000014097
:1004F00072B6FEE708B5344A136823F00F0343F0E1
:1005000007031360304B1B6803F00F03072BF9D16F
:100510002E4B1A6842F440421A601A6842F4803244
:100520001A6003F5E4331A6842F480221A601A68EC
:1005300042F480321A60264B1B6813F4003FFAD055
:10054000234B5A6823491140234A0A435A601A68C8
:1005500042F080721A601E4B1B6813F0007FFAD0C5
:100560001A4B5B6813F4804FFAD0194B9A6822F04B
:10057000F0029A609A6822F4E05242F4A0529A6023
:100580009A6822F4604242F400429A609A6822F02B
:10059000030242F002029A600D4B9B6803F00C03C9
:1005A000082BF9D10D4800F095FF0F2000F00CF951
:1005B00038B9074AD2F88C3023F08073C2F88C30F7
:1005C00008BDFFF795FF00BF003C024000700040EF
:1005D000003802400080BCFF0436400000E6DF0C1B
:1005E00008B5FFF72DFE01F087F8FFF783FFFFF74F
:1005F00071FE0F4B1A680F4BA3FB0232920B013AAC
:100600000D4B1A641822DA63002283F8352083F830
:100610003420052119605A6083F8542083F848205B
:1006200000F0C6F900F072FB01F098F9FEE700BF98
:10063000080000205917B7D14801002008B5144B15
:10064000DB6913F4006F1DD0114B4FF400621A6286
:1006500003F50633DB6AC3F1FF039BB20D4A138037
:100660000D4A11888B420ED95A1A92B20B48028059
:100670000B4A1180084A138001210A4B19700A485D
:1006800000F0CEFF08BD5A1A92B2FF3292B2EDE7E7
:1006900000480040EE000020F0000020F4000020A0
:1006A000F2000020F6000020000402401A4B1A78E5
:1006B0000132D2B21A70194BA3FB0201090901EBF6
:1006C0004101C800121AD2B215490978A3FB0103EF
:1006D0001B0903EB4303D800091AC9B28A4217D099
:1006E00010498B6D23F001038B650E4B9B6D13F04E
:1006F000010FFAD10C4951F832000A4B586601EB50
:10070000C2018A88DA659A6D42F001029A657047E3
:10071000064B00221A707047ED000020ABAAAAAA6F
:10072000EC000020006002402C0000202800002087
:1007300008B5074B1B6813F0006F00D108BD044AD1
:10074000936843F000639360FFF7B0FFF6E700BFE4
:1007500000600240044B1B6813F4006F03D0024B8F
:100760004FF400629A60704700600240FEE7FEE7C7
:10077000FEE7FEE7FEE7704708B5024800F070FCB0
:1007800008BD00BFF800002000B583B00D4B1A6C07
:1007900042F080521A641A6C02F080520092009A61
:1007A0005A6C42F480425A645B6C03F480430193B8
:1007B000019B00220F216FF0010000F07FFF03B0CA
:1007C0005DF804FB0038024030B589B004461E4B8A
:1007D0005A6C42F001025A645B6C03F0010301930E
:1007E000019B02A903A800F0FDFE00F0EBFE430010
:1007F000164AA2FB03239B0C013B1548154A0260D5
:1008000040F2E732C260436000230361836083618A
:1008100000F06EFD054610B1284609B030BD0C4809
:1008200000F0D2FB05460028F6D1192000F056FF53
:100830000F2C01D90125EFE700222146192000F0F5
:100840003DFF054B1C60E7E70038024083DE1B4399
:10085000F80000200000014004000020024B0022AC
:1008600083F84820704700BF48010020094B93F8E7
:10087000363003F00602062A01D000207047054AF0
:1008800023F0040182F8361023F0060382F8363094
:10089000012070474801002008B50D4B1B6813F478
:1008A000001F13D00A4A936843F400139360094B66
:1008B00008229A61084B93F8362042F0040283F82C
:1008C00036205B6C13B1044B5B6C984708BD00BFCE
:1008D000006402400000024048010020084B1B68F1
:1008E00013F0006F0BD0064A936843F000639360E7
:1008F000044A92F8363043F0020382F836307047EB
:1009000000640240480100204FF080431B6913F04F
:10091000010F43D04FF080436FF001021A6103F5DD
:1009200000334FF400229A611D4A92F8363023F0CA
:10093000040182F8361023F0060382F83630194A93
:10094000936D23F001039365164B9B6D13F0010F1C
:10095000FAD1144B144A5A661822DA659A6D42F09D
:1009600001029A651A6C22F001021A640D4B1B6C8D
:1009700013F0010FFAD10B4B0C4ADA6418225A64B7
:100980001A6C42F001021A64054B012283F85520CB
:100990005A6801325A609A6B01329A63704700BFFD
:1009A0004801002000640240D8010020C00100205E
:1009B00010B4584B1A6B42F001021A631A6B42F0E2
:1009C00008021A635448026822F4735242F4215216
:1009D000026052490A6822F4404242F400420A602E
:1009E000026A22F07F6242F0AA6202620A6A22F080
:1009F000704242F0A0420A625A6C42F480525A6439
:100A0000474A4FF44D7111604FF4B85151601A6B61
:100A100042F480021A63434A936D23F00103936505
:100A2000404B9B6D13F0010FFAD13E4A136C23F03B
:100A3000010313643B4B1B6C13F0010FFAD1394ACD
:100A40009168394B0B43936000239365906D374950
:100A5000014391651364106C3549014311643549B4
:100A600011669164344A4FF0806151604FF000612B
:100A70005160502182F83A1382F83B1306E00022BD
:100A80002E49CA542E49CA540133DBB2172BF6D96A
:100A90002C4A2323137253729372D3721E4B082174
:100AA00099611C4C236C43F0010323644FF0804395
:100AB000002119605960106C9862D06BD862186977
:100AC00020F001001861D86840F00100D8601A4891
:100AD0004FF08053036080F81C131B4B5364236C4E
:100AE00043F020032364194B1960596042F62F220A
:100AF0009A620922DA626FF001021A61DA6842F042
:100B00000102DA604FF40003436080F837135DF8A8
:100B1000044B70470038024000000240000C0240C5
:100B2000003001400064024000007D0F50040106C7
:100B3000100401060C30014000E100E0D801002063
:100B4000C0010020480100205D080008001400409A
:100B50000F4B18800F4B4FF400025A600E4A136877
:100B600043F00103136000E000BF094B1B889BB2F8
:100B7000002BF9D1074B4FF40002C3F88420BFF3D8
:100B80004F8FBFF36F8F024B00221A80704700BF58
:100B90004401002000E100E000140040074B1B6905
:100BA00013F0010F09D0054B6FF001021A61044ADE
:100BB00013889BB2013B9BB2138070470014004026
:100BC0004401002008B5204A92F8363023F0020C88
:100BD00082F836C023F0060382F836301B4B1870BB
:100BE00059701B4B4FF400229A611A4A936D23F0FF
:100BF00001039365174B9B6D13F0010FFAD1134955
:100C0000144B59660222DA659A6D42F001029A6528
:100C10001A6C22F001021A640E4B1B6C13F0010FC8
:100C2000FAD10C4BD96402225A641A6C42F00102C8
:100C30001A6400E000BFFFF719FE0028FAD0044B49
:100C400008229A6108BD00BF48010020A0010020D1
:100C5000000002400064024008B5010101F0F0010B
:100C60007F20FFF7AFFF0520FFF772FF08BD0000F0
:100C700008B5224A92F8363023F0020182F8361085
:100C800023F0060382F836301D4B60F07F001870A9
:100C900000225A701B4B4FF400229A611A4A936D3E
:100CA00023F001039365184B9B6D13F0010FFAD1EC
:100CB0001349154B59660222DA659A6D42F001021A
:100CC0009A651A6C22F001021A640F4B1B6C13F028
:100CD000010FFAD10C4BD96402225A641A6C42F00B
:100CE00001021A6400E000BFFFF7C0FD0028FAD03F
:100CF000044B08229A61024B587808BD4801002035
:100D0000A00100200000024000640240F8B5A74D99
:100D10006B691A0402F40002DB4303F080031343FF
:100D2000AB61A34C236843F040032360636843F046
:100D3000030363600020FFF78FFF0520FFF708FF24
:100D40000620FFF795FF80210620FFF73BFF4FF4B9
:100D5000FA70FFF7FDFE01210620FFF733FF4FF485
:100D60009670FFF7F5FE6B691A0402F40002DB438C
:100D700003F080031343AB6101210620FFF722FF3C
:100D80006420FFF7E5FE10210320FFF71BFF0A2078
:100D9000FFF7DEFE6B691A0402F40002DB4303F086
:100DA00080031343AB610220FFF756FF814F97F892
:100DB0003410490041F00101C9B21420FFF702FFCD
:100DC0002820FFF7C5FE97F83510490041F00101D2
:100DD000C9B20120FFF7F6FE2820FFF7B9FE97F809
:100DE0003430012606FA03F307EE903AF8EEE77A7C
:100DF00077EEA77A9FED707AC7EE876AC7ED136A20
:100E000097F8353006FA03F307EE903AF8EEE77AF2
:100E1000DFED6A6A67EEA67AC7EE876AC7ED146AE5
:100E200031460920FFF7CEFE0520FFF791FE002096
:100E3000FFF712FF0520FFF78BFE0320FFF718FFD7
:100E400040F00201C9B20320FFF7BCFE6420FFF7A7
:100E50007FFE6B691A0402F40002DB4303F0800397
:100E60001343AB610320FFF703FF40F02001C9B239
:100E70000320FFF7A7FE0A20FFF76AFE0320FFF713
:100E8000EBFE0520FFF764FE07213046FFF79AFED0
:100E90000A20FFF75DFE0020FFF7DEFE0520FFF7CA
:100EA00057FE40210520FFF78DFE6420FFF750FE1E
:100EB0006B691A0402F40002DB4303F0800313435E
:100EC000AB610320FFF7C8FE0520FFF741FE0321B9
:100ED0000020FFF777FE0A20FFF73AFE0C210320DF
:100EE000FFF770FE32210420FFF76CFE314606202A
:100EF000FFF768FE81210520FFF764FE3220FFF72F
:100F000027FE0C210320FFF75DFE31210420FFF7AF
:100F100059FE08210620FFF755FE81210520FFF725
:100F200051FE3220FFF714FE6B691A0402F400022E
:100F3000DB4303F080031343AB618C210320FFF7F5
:100F400041FE10210420FFF73DFE89210520FFF717
:100F500039FE6420FFF7FCFD0020FFF77DFE202115
:100F60000320FFF72FFE6420FFF7F2FD0020FFF7BC
:100F700073FE0520FFF7ECFD0020FFF779FE6420EB
:100F8000FFF7E6FD236823F040032360236843F066
:100F900018032360236843F040032360636843F031
:100FA00003036360064BAD221A70F8BD00040240D3
:100FB000003001404801002000FEFF4600007A4357
:100FC000D80100207047000090F83D30DBB2012BC3
:100FD0003AD1022380F83D300268D36843F0010320
:100FE000D36003681A4AB3F1804F18BF93421DD0F3
:100FF000A2F57C42934219D002F58062934215D04B
:1010000002F58062934211D002F5784293420DD0EE
:1010100002F57052934209D0A2F59432934205D062
:101020001A6842F001021A60002070479968094A64
:101030000A40062A18BFB2F5803F07D01A6842F06E
:1010400001021A600020704701207047002070479D
:10105000000001400700010070477047704770476B
:1010600070B504460368DE681D6915F0020F10D0E4
:1010700016F0020F0DD06FF002021A610123037700
:1010800003689B6913F0030F64D0FFF7E6FF0023AA
:10109000237715F0040F12D016F0040F0FD0236839
:1010A0006FF004021A610223237723689B6913F40B
:1010B000407F55D02046FFF7D0FF0023237715F05F
:1010C000080F12D016F0080F0FD023686FF0080237
:1010D0001A61042323772368DB6913F0030F46D0DA
:1010E0002046FFF7BAFF0023237715F0100F12D028
:1010F00016F0100F0FD023686FF010021A6108234A
:1011000023772368DB6913F4407F37D02046FFF74D
:10111000A4FF0023237715F0010F02D016F0010F72
:1011200033D115F4025F02D016F0800F35D115F4DB
:10113000807F02D016F0800F37D115F0400F02D01B
:1011400016F0400F39D115F0200F02D016F0200F05
:101150003BD170BDFFF780FF2046FFF77FFF96E78A
:101160002046FFF779FF2046FFF778FFA5E72046E6
:10117000FFF772FF2046FFF771FFB4E72046FFF745
:101180006BFF2046FFF76AFFC3E723686FF0010299
:101190001A612046FFF7A0F9C3E723686FF40252F3
:1011A0001A61204600F0D5F8C1E723686FF4807219
:1011B0001A61204600F0CEF8BFE723686FF04002C6
:1011C0001A612046FFF74BFFBDE723686FF020024E
:1011D0001A61204600F0BCF8BBE7000070B4036859
:1011E0003C4A904214BF00220122B0F1804F14BF4C
:1011F000144642F00104ACB9374DA84214BF002593
:101200000125364EB0420DD065B905F1804505F592
:101210008235A84214BF0025012506F50066B042BC
:1012200000D01DB123F070034D682B43002C33D147
:10123000294CA04214BF00240124284DA8422BD0E1
:1012400054BB04F1804404F58234A04214BF00244E
:10125000012405F50065A8421ED0ECB9204CA0423F
:1012600014BF0024012405F59A35A84214D09CB976
:101270001C4CA04214BF0024012405F50065A842BF
:101280000AD04CB9184CA04214BF00240124A5F583
:101290009635A84200D01CB123F44073CC68234398
:1012A00023F080034C6923438C68C4620C68846219
:1012B0000E4CA04208BF42F001020AB10A69026363
:1012C000026842F00402026001224261036070BCC5
:1012D000704700BF000001400008004000040040CB
:1012E000004401400018004000200040000401407C
:1012F00060B310B5044690F83D3013B3022384F870
:101300003D30214651F8040BFFF768FF012384F8B4
:10131000483084F83E3084F83F3084F8403084F818
:10132000413084F8423084F8433084F8443084F803
:10133000453084F8463084F8473084F83D3000204A
:1013400010BD80F83C30FFF73DFED7E70120704725
:1013500070477047704700B5836891FAA1FCBCFAEA
:101360008CFC4FEA4C0C4FF0030E0EFA0CFC23EAF7
:101370000C0391FAA1F1B1FA81F149008A401343BB
:1013800083605DF804FB00B5C36891FAA1FCBCFA68
:101390008CFC4FEA4C0C4FF0030E0EFA0CFC23EAC7
:1013A0000C0391FAA1F1B1FA81F149008A4013438B
:1013B000C3605DF804FB00B5036A91FAA1FCBCFAB6
:1013C0008CFC4FEA8C0C4FF00F0E0EFA0CFC23EA4B
:1013D0000C0391FAA1F1B1FA81F189008A4013431B
:1013E00003625DF804FB00B5436A090A91FAA1FCA7
:1013F000BCFA8CFC4FEA8C0C4FF00F0E0EFA0CFC72
:1014000023EA0C0391FAA1F1B1FA81F189008A4033
:10141000134343625DF804FB00B5036891FAA1FC35
:10142000BCFA8CFC4FEA4C0C4FF0030E0EFA0CFC8D
:1014300023EA0C0391FAA1F1B1FA81F149008A4043
:10144000134303605DF804FBF8B507460E460D68CC
:1014500095FAA5F5B5FA85F519E0B2682146384642
:10146000FFF779FF3268F1687B6823EA020301FB2A
:1014700002F213437B6016E0726921463846FFF79B
:10148000B2FF726821463846FFF7C6FF013534685F
:1014900034FA05F21BD00122AA401440F6D073683A
:1014A000013B012BD9D9326921463846FFF76BFF42
:1014B0007368022BE5D194FAA4F3B3FA83F3072BF4
:1014C000DAD8726921463846FFF775FFD9E7002060
:1014D000F8BD0000014B1860704700BF08000020F5
:1014E00010B403460079002852D01A68002A5DD053
:1014F0005879012820D0022829D0002831D12D493F
:101500004C6824EA02024A601A680C6822430A60A6
:101510009A79002A47D0022A25D0032A2ED0012A00
:1015200046D11C68234AD16821EA0401D1601B68B6
:1015300091680B43936036E01E49086820EA020276
:101540000A601A68486802434A600020E0E71949C7
:10155000086802430A601A68486802434A6000202B
:10156000D6E70120D4E71C68124A916821EA0401F9
:1015700091601B68D1680B43D36014E019680D4A71
:101580009468214391601B68D1680B43D3600AE0E3
:10159000084A11681C6821EA04011160196853683F
:1015A00023EA010353605DF8044B70470020FAE71B
:1015B0000120F8E7003C0140014B1868704700BF6C
:1015C0000800002008B5FFF7F7FF044B9B68C3F342
:1015D0004233034AD35CD84008BD00BF0038024004
:1015E000181B00080F2303600B4B9A6802F00302DC
:1015F00042609A6802F0F00282609A6802F4E05257
:10160000C2609B68DB0803F4E0530361034B1B6873
:1016100003F00F030B60704700380240003C0240AB
:10162000436901EA030221EA030141EA02418161BF
:1016300070470000002804DB0901C9B2044B1954AB
:10164000704700F00F000901C9B2024B19547047EE
:1016500000E400E014ED00E000B500F00700C0F188
:10166000070CBCF1040F28BF4FF0040C031D062B20
:101670000FD9C31E4FF0FF3E0EFA0CF021EA000115
:1016800099400EFA03FE22EA0E0241EA02005DF8DA
:1016900004FB0023EEE700000649CB6823F4E06377
:1016A0001B041B0C000200F4E0600343024A1A43CF
:1016B000CA60704700ED00E00000FA0510B504466E
:1016C000054BD868C0F30220FFF7C6FF014620464D
:1016D000FFF7B0FF10BD00BF00ED00E0002807DB02
:1016E00000F01F02400901239340024A42F82030D3
:1016F000704700BF00E100E008B50320FFF7CCFF12
:101700000F20FFF761F8FFF73FF8002008BD000049
:10171000034A1168034B1B780B441360704700BFEA
:10172000F001002000000020034AD2F8883043F482
:101730007003C2F88830704700ED00E043684B60EA
:101740009A688A6051609960086103680133036098
:1017500070470369416882688A60416851605A68CD
:10176000824206D0002202611A68013A1A601868A3
:10177000704782685A60F5E7084B1B681B6823B9FD
:10178000074B4FF0FF321A607047044B1B68DB6851
:10179000DB685A68024B1A60704700BF14020020D1
:1017A000F8010020F8B53B4B1B68002B66D13A4B83
:1017B0001D6801351D60D5B9384B1B681B6853B1D6
:1017C0004FF0500372B683F31188BFF36F8FBFF3EE
:1017D0004F8F62B6FEE7314A1168314B18681060CE
:1017E0001960304A136801331360FFF7C5FF2E4BB1
:1017F0001B68AB4238D900272C4B1B68DB6A03EB14
:1018000083039A002A4B9B58012B3CD901273AE0CD
:101810000127224B1B681B6843B3204B1B68DB6806
:10182000DC6863689D4226D3261D3046FFF791FF92
:10183000A36A1BB104F11800FFF78BFFE36A1D4A8E
:101840001268934201D91B4A136003EB83039A0089
:10185000314617481044FFF771FFE26A134B1B68CB
:10186000DB6A9A42D4D2D4E70027D2E70E4B4FF07E
:10187000FF321A60C0E70C4A1360BDE70E4A1368D6
:101880000133136000270D4B1B6803B10127384655
:10189000F8BD00BFF40100200C020020140200205B
:1018A00010020020FC010020F80100207806002032
:1018B000180200200802002004020020000200207C
:1018C000214B1B681BB1214B01221A6070471F4B33
:1018D00000221A601E4B1B6803EB83018A001D491E
:1018E0008A586AB90BB1013BF6E74FF0500372B664
:1018F00083F31188BFF36F8FBFF34F8F62B6FEE79C
:10190000084603EB83018A0002445168496851602C
:1019100003EB830C4FEA8C020832024491420BD055
:1019200003EB830291000B4A0A445268D1680A4AC9
:101930001160074A13607047486862469100054A83
:101940000A445060ECE700BFF401002000020020D0
:10195000080200201802002078060020EFF305831B
:101960007BB9EFF3108313B9EFF311831BB1094B6C
:101970001B68022B08D0074B186840B901221A6077
:1019800070476FF0050070476FF0050070474FF02B
:10199000FF3070477C0600200000000000000000BF
:1019A000074B19680868B0E8F04F80F30988BFF367
:1019B0006F8F4FF0000080F311887047AFF3008005
:1019C0007806002000000000000000000000000079
:1019D000EFF30980BFF36F8F154B1A681EF0100FDD
:1019E00008BF20ED108A20E9F04F10602DE90900B2
:1019F0004FF0500072B680F31188BFF34F8FBFF3E2
:101A00006F8F62B6FFF75CFF4FF0000080F3118824
:101A100009BC19680868B0E8F04F1EF0100F08BF45
:101A2000B0EC108A80F30988BFF36F8F704700BF56
:101A30007806002008B54FF0500372B683F3118882
:101A4000BFF36F8FBFF34F8F62B6FFF7ABFE28B1C6
:101A50004FF0E0234FF08052C3F8042D002383F3AE
:101A6000118808BDDFF834D0FFF75EFE0C480D4941
:101A70000D4A002302E0D458C4500433C4188C42E9
:101A8000F9D30A4A0A4C002301E013600432A2424F
:101A9000FBD300F011F8FEF7A3FD7047000008200B
:101AA000000000200C000020281B00080C00002073
:101AB00080060020FEE7000070B50D4D0D4C641B44
:101AC000A4100026A64209D10B4D0C4C00F018F8CA
:101AD000641BA4100026A64205D170BD55F8043B36
:101AE00098470136EEE755F8043B98470136F2E790
:101AF000201B0008201B0008201B0008241B0008D6
:101B0000F8B500BFF8BC08BC9E467047F8B500BFEA
:081B1000F8BC08BC9E467047BA
:081B18000000000001020304BB
:041B20002502000892
:041B240001020008B2
:0C1B280001000000100000000024F40088
:0400000508001A6570
:00000001FF
